{
  "transactions": [
    {
      "hash": "0xbdd355fe476bfa4ea6f5d4c6f7c36393cfc0272fd8d18f09770dbb73ad1cc470",
      "transactionType": "CALL",
      "contractName": null,
      "contractAddress": "0x779877a7b0d9e8603169ddbd7836e478b4624789",
      "function": "transferAndCall(address,uint256,bytes)",
      "arguments": [
        "0x9DdfaCa8183c41ad55329BdeeD9F6A8d53168B1B",
        "3000000000000000000",
        "0x2c0507c21c675ced8228a31dc5476539c5c1e854ae19082e3b20d5eac54d8610"
      ],
      "transaction": {
        "from": "0xf1d89a277c0551235a02058c4f86e80faf23d10b",
        "to": "0x779877a7b0d9e8603169ddbd7836e478b4624789",
        "gas": "0x1c1ff",
        "value": "0x0",
        "input": "0x4000aea00000000000000000000000009ddfaca8183c41ad55329bdeed9f6a8d53168b1b00000000000000000000000000000000000000000000000029a2241af62c0000000000000000000000000000000000000000000000000000000000000000006000000000000000000000000000000000000000000000000000000000000000202c0507c21c675ced8228a31dc5476539c5c1e854ae19082e3b20d5eac54d8610",
        "nonce": "0x9",
        "chainId": "0xaa36a7"
      },
      "additionalContracts": [],
      "isFixedGasLimit": false
    }
  ],
  "receipts": [
    {
      "status": "0x1",
      "cumulativeGasUsed": "0x6081b4",
      "logs": [
        {
          "address": "0x779877a7b0d9e8603169ddbd7836e478b4624789",
          "topics": [
            "0xddf252ad1be2c89b69c2b068fc378daa952ba7f163c4a11628f55a4df523b3ef",
            "0x000000000000000000000000f1d89a277c0551235a02058c4f86e80faf23d10b",
            "0x0000000000000000000000009ddfaca8183c41ad55329bdeed9f6a8d53168b1b"
          ],
          "data": "0x00000000000000000000000000000000000000000000000029a2241af62c0000",
          "blockHash": "0xc179b1d7956923e0878a3b4e9553425d680d10d318eb97f0ae13c59ab82bbd85",
          "blockNumber": "0x6c7426",
          "transactionHash": "0xbdd355fe476bfa4ea6f5d4c6f7c36393cfc0272fd8d18f09770dbb73ad1cc470",
          "transactionIndex": "0x2f",
          "logIndex": "0x3c",
          "removed": false
        },
        {
          "address": "0x779877a7b0d9e8603169ddbd7836e478b4624789",
          "topics": [
            "0xe19260aff97b920c7df27010903aeb9c8d2be5d310a2c67824cf3f15396e4c16",
            "0x000000000000000000000000f1d89a277c0551235a02058c4f86e80faf23d10b",
            "0x0000000000000000000000009ddfaca8183c41ad55329bdeed9f6a8d53168b1b"
          ],
          "data": "0x00000000000000000000000000000000000000000000000029a2241af62c0000000000000000000000000000000000000000000000000000000000000000004000000000000000000000000000000000000000000000000000000000000000202c0507c21c675ced8228a31dc5476539c5c1e854ae19082e3b20d5eac54d8610",
          "blockHash": "0xc179b1d7956923e0878a3b4e9553425d680d10d318eb97f0ae13c59ab82bbd85",
          "blockNumber": "0x6c7426",
          "transactionHash": "0xbdd355fe476bfa4ea6f5d4c6f7c36393cfc0272fd8d18f09770dbb73ad1cc470",
          "transactionIndex": "0x2f",
          "logIndex": "0x3d",
          "removed": false
        },
        {
          "address": "0x9ddfaca8183c41ad55329bdeed9f6a8d53168b1b",
          "topics": [
            "0x1ced9348ff549fceab2ac57cd3a9de38edaaab274b725ee82c23e8fc8c4eec7a",
            "0x2c0507c21c675ced8228a31dc5476539c5c1e854ae19082e3b20d5eac54d8610"
          ],
          "data": "0x000000000000000000000000000000000000000000000000000000000000000000000000000000000000000000000000000000000000000029a2241af62c0000",
          "blockHash": "0xc179b1d7956923e0878a3b4e9553425d680d10d318eb97f0ae13c59ab82bbd85",
          "blockNumber": "0x6c7426",
          "transactionHash": "0xbdd355fe476bfa4ea6f5d4c6f7c36393cfc0272fd8d18f09770dbb73ad1cc470",
          "transactionIndex": "0x2f",
          "logIndex": "0x3e",
          "removed": false
        }
      ],
      "logsBloom": "0x00000004000000000000000000000000000000000020000000000000020000000000000000000000000000000000000000000000000000000000000001000000000000000000000000000008000000000000000000000008000020000020000008000000000020000010000000000000000000000000000000000010000040000000000000000000000000010000800000000020000000000000000000000000000000000000000000000000010000000000000000000000000004008000000000000002000000000000000400000000000000000000000100000000000000000010000000000000800000000000000000000000000000000000000000000000",
      "type": "0x2",
      "transactionHash": "0xbdd355fe476bfa4ea6f5d4c6f7c36393cfc0272fd8d18f09770dbb73ad1cc470",
      "transactionIndex": "0x2f",
      "blockHash": "0xc179b1d7956923e0878a3b4e9553425d680d10d318eb97f0ae13c59ab82bbd85",
      "blockNumber": "0x6c7426",
      "gasUsed": "0x133b1",
      "effectiveGasPrice": "0x1141cf3",
      "from": "0xf1d89a277c0551235a02058c4f86e80faf23d10b",
      "to": "0x779877a7b0d9e8603169ddbd7836e478b4624789",
      "contractAddress": null
    }
  ],
  "libraries": [],
  "pending": [],
  "returns": {},
  "timestamp": 1732000923,
  "chain": 11155111,
  "commit": "f82b08e"
}